{
  "_format": "hh-sol-artifact-1",
  "contractName": "dubNFT",
  "sourceName": "contracts/dubNFT.sol",
  "abi": [
    {
      "inputs": [],
      "stateMutability": "nonpayable",
      "type": "constructor"
    },
    {
      "anonymous": false,
      "inputs": [
        {
          "indexed": true,
          "internalType": "address",
          "name": "owner",
          "type": "address"
        },
        {
          "indexed": true,
          "internalType": "address",
          "name": "approved",
          "type": "address"
        },
        {
          "indexed": true,
          "internalType": "uint256",
          "name": "tokenId",
          "type": "uint256"
        }
      ],
      "name": "Approval",
      "type": "event"
    },
    {
      "anonymous": false,
      "inputs": [
        {
          "indexed": true,
          "internalType": "address",
          "name": "owner",
          "type": "address"
        },
        {
          "indexed": true,
          "internalType": "address",
          "name": "operator",
          "type": "address"
        },
        {
          "indexed": false,
          "internalType": "bool",
          "name": "approved",
          "type": "bool"
        }
      ],
      "name": "ApprovalForAll",
      "type": "event"
    },
    {
      "anonymous": false,
      "inputs": [
        {
          "indexed": false,
          "internalType": "address",
          "name": "sender",
          "type": "address"
        },
        {
          "indexed": false,
          "internalType": "uint256",
          "name": "tokenId",
          "type": "uint256"
        }
      ],
      "name": "NewDubNFTMinted",
      "type": "event"
    },
    {
      "anonymous": false,
      "inputs": [
        {
          "indexed": true,
          "internalType": "address",
          "name": "from",
          "type": "address"
        },
        {
          "indexed": true,
          "internalType": "address",
          "name": "to",
          "type": "address"
        },
        {
          "indexed": true,
          "internalType": "uint256",
          "name": "tokenId",
          "type": "uint256"
        }
      ],
      "name": "Transfer",
      "type": "event"
    },
    {
      "inputs": [
        {
          "internalType": "address",
          "name": "to",
          "type": "address"
        },
        {
          "internalType": "uint256",
          "name": "tokenId",
          "type": "uint256"
        }
      ],
      "name": "approve",
      "outputs": [],
      "stateMutability": "nonpayable",
      "type": "function"
    },
    {
      "inputs": [
        {
          "internalType": "address",
          "name": "owner",
          "type": "address"
        }
      ],
      "name": "balanceOf",
      "outputs": [
        {
          "internalType": "uint256",
          "name": "",
          "type": "uint256"
        }
      ],
      "stateMutability": "view",
      "type": "function"
    },
    {
      "inputs": [
        {
          "internalType": "uint256",
          "name": "tokenId",
          "type": "uint256"
        }
      ],
      "name": "getApproved",
      "outputs": [
        {
          "internalType": "address",
          "name": "",
          "type": "address"
        }
      ],
      "stateMutability": "view",
      "type": "function"
    },
    {
      "inputs": [],
      "name": "getDub",
      "outputs": [],
      "stateMutability": "nonpayable",
      "type": "function"
    },
    {
      "inputs": [
        {
          "internalType": "address",
          "name": "owner",
          "type": "address"
        },
        {
          "internalType": "address",
          "name": "operator",
          "type": "address"
        }
      ],
      "name": "isApprovedForAll",
      "outputs": [
        {
          "internalType": "bool",
          "name": "",
          "type": "bool"
        }
      ],
      "stateMutability": "view",
      "type": "function"
    },
    {
      "inputs": [],
      "name": "mintedSoFar",
      "outputs": [
        {
          "internalType": "uint256",
          "name": "",
          "type": "uint256"
        }
      ],
      "stateMutability": "view",
      "type": "function"
    },
    {
      "inputs": [],
      "name": "name",
      "outputs": [
        {
          "internalType": "string",
          "name": "",
          "type": "string"
        }
      ],
      "stateMutability": "view",
      "type": "function"
    },
    {
      "inputs": [
        {
          "internalType": "uint256",
          "name": "tokenId",
          "type": "uint256"
        }
      ],
      "name": "ownerOf",
      "outputs": [
        {
          "internalType": "address",
          "name": "",
          "type": "address"
        }
      ],
      "stateMutability": "view",
      "type": "function"
    },
    {
      "inputs": [
        {
          "internalType": "uint256",
          "name": "tokenId",
          "type": "uint256"
        }
      ],
      "name": "pickRandomColor",
      "outputs": [
        {
          "internalType": "string",
          "name": "",
          "type": "string"
        }
      ],
      "stateMutability": "view",
      "type": "function"
    },
    {
      "inputs": [
        {
          "internalType": "uint256",
          "name": "tokenId",
          "type": "uint256"
        }
      ],
      "name": "pickRandomFirstWord",
      "outputs": [
        {
          "internalType": "string",
          "name": "",
          "type": "string"
        }
      ],
      "stateMutability": "view",
      "type": "function"
    },
    {
      "inputs": [
        {
          "internalType": "uint256",
          "name": "tokenId",
          "type": "uint256"
        }
      ],
      "name": "pickRandomSecondWord",
      "outputs": [
        {
          "internalType": "string",
          "name": "",
          "type": "string"
        }
      ],
      "stateMutability": "view",
      "type": "function"
    },
    {
      "inputs": [
        {
          "internalType": "uint256",
          "name": "tokenId",
          "type": "uint256"
        }
      ],
      "name": "pickRandomThirdWord",
      "outputs": [
        {
          "internalType": "string",
          "name": "",
          "type": "string"
        }
      ],
      "stateMutability": "view",
      "type": "function"
    },
    {
      "inputs": [
        {
          "internalType": "address",
          "name": "from",
          "type": "address"
        },
        {
          "internalType": "address",
          "name": "to",
          "type": "address"
        },
        {
          "internalType": "uint256",
          "name": "tokenId",
          "type": "uint256"
        }
      ],
      "name": "safeTransferFrom",
      "outputs": [],
      "stateMutability": "nonpayable",
      "type": "function"
    },
    {
      "inputs": [
        {
          "internalType": "address",
          "name": "from",
          "type": "address"
        },
        {
          "internalType": "address",
          "name": "to",
          "type": "address"
        },
        {
          "internalType": "uint256",
          "name": "tokenId",
          "type": "uint256"
        },
        {
          "internalType": "bytes",
          "name": "_data",
          "type": "bytes"
        }
      ],
      "name": "safeTransferFrom",
      "outputs": [],
      "stateMutability": "nonpayable",
      "type": "function"
    },
    {
      "inputs": [
        {
          "internalType": "address",
          "name": "operator",
          "type": "address"
        },
        {
          "internalType": "bool",
          "name": "approved",
          "type": "bool"
        }
      ],
      "name": "setApprovalForAll",
      "outputs": [],
      "stateMutability": "nonpayable",
      "type": "function"
    },
    {
      "inputs": [
        {
          "internalType": "bytes4",
          "name": "interfaceId",
          "type": "bytes4"
        }
      ],
      "name": "supportsInterface",
      "outputs": [
        {
          "internalType": "bool",
          "name": "",
          "type": "bool"
        }
      ],
      "stateMutability": "view",
      "type": "function"
    },
    {
      "inputs": [],
      "name": "symbol",
      "outputs": [
        {
          "internalType": "string",
          "name": "",
          "type": "string"
        }
      ],
      "stateMutability": "view",
      "type": "function"
    },
    {
      "inputs": [
        {
          "internalType": "uint256",
          "name": "tokenId",
          "type": "uint256"
        }
      ],
      "name": "tokenURI",
      "outputs": [
        {
          "internalType": "string",
          "name": "",
          "type": "string"
        }
      ],
      "stateMutability": "view",
      "type": "function"
    },
    {
      "inputs": [
        {
          "internalType": "address",
          "name": "from",
          "type": "address"
        },
        {
          "internalType": "address",
          "name": "to",
          "type": "address"
        },
        {
          "internalType": "uint256",
          "name": "tokenId",
          "type": "uint256"
        }
      ],
      "name": "transferFrom",
      "outputs": [],
      "stateMutability": "nonpayable",
      "type": "function"
    }
  ],
  "bytecode": "0x60806040526040518060a001604052806040518060400160405280600681526020017f4c6562726f6e000000000000000000000000000000000000000000000000000081525081526020016040518060400160405280600581526020017f6b616e796500000000000000000000000000000000000000000000000000000081525081526020016040518060400160405280600481526020017f456c6f6e0000000000000000000000000000000000000000000000000000000081525081526020016040518060400160405280600581526020017f537465766500000000000000000000000000000000000000000000000000000081525081526020016040518060400160405280600781526020017f4a6f736843523700000000000000000000000000000000000000000000000000815250815250600890600562000146929190620007d5565b506040518060e001604052806040518060400160405280600481526020017f506c61790000000000000000000000000000000000000000000000000000000081525081526020016040518060400160405280600481526020017f507261790000000000000000000000000000000000000000000000000000000081525081526020016040518060400160405280600381526020017f456174000000000000000000000000000000000000000000000000000000000081525081526020016040518060400160405280600581526020017f4c6561726e00000000000000000000000000000000000000000000000000000081525081526020016040518060400160405280600481526020017f576f726b0000000000000000000000000000000000000000000000000000000081525081526020016040518060400160405280600581526020017f447265616d00000000000000000000000000000000000000000000000000000081525081526020016040518060400160405280600581526020017f536c6565700000000000000000000000000000000000000000000000000000008152508152506009906007620002ff9291906200083c565b506040518060c001604052806040518060400160405280600481526020017f4c6966650000000000000000000000000000000000000000000000000000000081525081526020016040518060400160405280600481526020017f4c6561640000000000000000000000000000000000000000000000000000000081525081526020016040518060400160405280600481526020017f466f6f640000000000000000000000000000000000000000000000000000000081525081526020016040518060400160405280600481526020017f486172640000000000000000000000000000000000000000000000000000000081525081526020016040518060400160405280600481526020017f4c6966650000000000000000000000000000000000000000000000000000000081525081526020016040518060400160405280600581526020017f4d75736963000000000000000000000000000000000000000000000000000000815250815250600a9060066200047d929190620008a3565b5060405180606001604052806040518060400160405280600981526020017f233335616565323637000000000000000000000000000000000000000000000081525081526020016040518060400160405280600981526020017f233630633635373539000000000000000000000000000000000000000000000081525081526020016040518060400160405280600981526020017f2362646264626433660000000000000000000000000000000000000000000000815250815250600b9060036200054a9291906200090a565b5060405180602001604052806000815250600c90805190602001906200057292919062000971565b5060405180610100016040528060d481526020016200457060d49139600d9080519060200190620005a592919062000971565b506040518060400160405280600981526020017f2336306336353735390000000000000000000000000000000000000000000000815250600e9080519060200190620005f392919062000971565b506040518060800160405280605881526020016200466760589139600f90805190602001906200062592919062000971565b503480156200063357600080fd5b506040518060400160405280600381526020017f64756200000000000000000000000000000000000000000000000000000000008152506040518060400160405280600681526020017f53515541524500000000000000000000000000000000000000000000000000008152508160009080519060200190620006b892919062000971565b508060019080519060200190620006d192919062000971565b5050506200070360405180606001604052806023815260200162004644602391396200070960201b6200140f1760201c565b62000bbc565b620007a98160405160240162000720919062000ad0565b6040516020818303038152906040527f41304fac000000000000000000000000000000000000000000000000000000007bffffffffffffffffffffffffffffffffffffffffffffffffffffffff19166020820180517bffffffffffffffffffffffffffffffffffffffffffffffffffffffff8381831617835250505050620007ac60201b60201c565b50565b60008151905060006a636f6e736f6c652e6c6f679050602083016000808483855afa5050505050565b82805482825590600052602060002090810192821562000829579160200282015b82811115620008285782518290805190602001906200081792919062000971565b5091602001919060010190620007f6565b5b50905062000838919062000a02565b5090565b82805482825590600052602060002090810192821562000890579160200282015b828111156200088f5782518290805190602001906200087e92919062000971565b50916020019190600101906200085d565b5b5090506200089f919062000a02565b5090565b828054828255906000526020600020908101928215620008f7579160200282015b82811115620008f6578251829080519060200190620008e592919062000971565b5091602001919060010190620008c4565b5b50905062000906919062000a02565b5090565b8280548282559060005260206000209081019282156200095e579160200282015b828111156200095d5782518290805190602001906200094c92919062000971565b50916020019190600101906200092b565b5b5090506200096d919062000a02565b5090565b8280546200097f9062000b46565b90600052602060002090601f016020900481019282620009a35760008555620009ef565b82601f10620009be57805160ff1916838001178555620009ef565b82800160010185558215620009ef579182015b82811115620009ee578251825591602001919060010190620009d1565b5b509050620009fe919062000a2a565b5090565b5b8082111562000a26576000818162000a1c919062000a49565b5060010162000a03565b5090565b5b8082111562000a4557600081600090555060010162000a2b565b5090565b50805462000a579062000b46565b6000825580601f1062000a6b575062000a8c565b601f01602090049060005260206000209081019062000a8b919062000a2a565b5b50565b600062000a9c8262000af4565b62000aa8818562000aff565b935062000aba81856020860162000b10565b62000ac58162000bab565b840191505092915050565b6000602082019050818103600083015262000aec818462000a8f565b905092915050565b600081519050919050565b600082825260208201905092915050565b60005b8381101562000b3057808201518184015260208101905062000b13565b8381111562000b40576000848401525b50505050565b6000600282049050600182168062000b5f57607f821691505b6020821081141562000b765762000b7562000b7c565b5b50919050565b7f4e487b7100000000000000000000000000000000000000000000000000000000600052602260045260246000fd5b6000601f19601f8301169050919050565b6139a48062000bcc6000396000f3fe608060405234801561001057600080fd5b50600436106101215760003560e01c80636352211e116100ad578063b187301f11610071578063b187301f1461031a578063b88d4fde1461034a578063c575757a14610366578063c87b56dd14610396578063e985e9c5146103c657610121565b80636352211e1461026257806370a082311461029257806393bd3da5146102c257806395d89b41146102e0578063a22cb465146102fe57610121565b806323b872dd116100f457806323b872dd146101c05780632de38d68146101dc5780633b8a82021461020c57806342842e0e14610216578063514dc8c61461023257610121565b806301ffc9a71461012657806306fdde0314610156578063081812fc14610174578063095ea7b3146101a4575b600080fd5b610140600480360381019061013b91906126a2565b6103f6565b60405161014d919061321a565b60405180910390f35b61015e6104d8565b60405161016b9190613235565b60405180910390f35b61018e600480360381019061018991906126f4565b61056a565b60405161019b919061318a565b60405180910390f35b6101be60048036038101906101b99190612666565b6105ef565b005b6101da60048036038101906101d59190612560565b610707565b005b6101f660048036038101906101f191906126f4565b610767565b6040516102039190613235565b60405180910390f35b610214610885565b005b610230600480360381019061022b9190612560565b610abf565b005b61024c600480360381019061024791906126f4565b610adf565b6040516102599190613235565b60405180910390f35b61027c600480360381019061027791906126f4565b610bfd565b604051610289919061318a565b60405180910390f35b6102ac60048036038101906102a791906124fb565b610caf565b6040516102b99190613495565b60405180910390f35b6102ca610d67565b6040516102d79190613495565b60405180910390f35b6102e8610d78565b6040516102f59190613235565b60405180910390f35b6103186004803603810190610313919061262a565b610e0a565b005b610334600480360381019061032f91906126f4565b610f8b565b6040516103419190613235565b60405180910390f35b610364600480360381019061035f91906125af565b6110a9565b005b610380600480360381019061037b91906126f4565b61110b565b60405161038d9190613235565b60405180910390f35b6103b060048036038101906103ab91906126f4565b611229565b6040516103bd9190613235565b60405180910390f35b6103e060048036038101906103db9190612524565b61137b565b6040516103ed919061321a565b60405180910390f35b60007f80ac58cd000000000000000000000000000000000000000000000000000000007bffffffffffffffffffffffffffffffffffffffffffffffffffffffff1916827bffffffffffffffffffffffffffffffffffffffffffffffffffffffff191614806104c157507f5b5e139f000000000000000000000000000000000000000000000000000000007bffffffffffffffffffffffffffffffffffffffffffffffffffffffff1916827bffffffffffffffffffffffffffffffffffffffffffffffffffffffff1916145b806104d157506104d0826114a8565b5b9050919050565b6060600080546104e790613734565b80601f016020809104026020016040519081016040528092919081815260200182805461051390613734565b80156105605780601f1061053557610100808354040283529160200191610560565b820191906000526020600020905b81548152906001019060200180831161054357829003601f168201915b5050505050905090565b600061057582611512565b6105b4576040517f08c379a00000000000000000000000000000000000000000000000000000000081526004016105ab906133f5565b60405180910390fd5b6004600083815260200190815260200160002060009054906101000a900473ffffffffffffffffffffffffffffffffffffffff169050919050565b60006105fa82610bfd565b90508073ffffffffffffffffffffffffffffffffffffffff168373ffffffffffffffffffffffffffffffffffffffff16141561066b576040517f08c379a000000000000000000000000000000000000000000000000000000000815260040161066290613455565b60405180910390fd5b8073ffffffffffffffffffffffffffffffffffffffff1661068a61157e565b73ffffffffffffffffffffffffffffffffffffffff1614806106b957506106b8816106b361157e565b61137b565b5b6106f8576040517f08c379a00000000000000000000000000000000000000000000000000000000081526004016106ef90613335565b60405180910390fd5b6107028383611586565b505050565b61071861071261157e565b8261163f565b610757576040517f08c379a000000000000000000000000000000000000000000000000000000000815260040161074e90613475565b60405180910390fd5b61076283838361171d565b505050565b6060600061079b61077784611979565b604051602001610787919061304c565b604051602081830303815290604052611b26565b9050600880549050816107ae91906137af565b9050600881815481106107ea577f4e487b7100000000000000000000000000000000000000000000000000000000600052603260045260246000fd5b9060005260206000200180546107ff90613734565b80601f016020809104026020016040519081016040528092919081815260200182805461082b90613734565b80156108785780601f1061084d57610100808354040283529160200191610878565b820191906000526020600020905b81548152906001019060200180831161085b57829003601f168201915b5050505050915050919050565b60326108916007611b59565b111561089c57600080fd5b60006108a86007611b59565b905060006108b582610767565b905060006108c283610f8b565b905060006108cf8461110b565b90506108da84610adf565b600e90805190602001906108ef929190612387565b50600083838360405160200161090793929190613087565b60405160208183030381529060405290506000600d600e600f8460405160200161093494939291906130b8565b60405160208183030381529060405290506109836040518060400160405280601581526020017f0a2d2d2d2d2d2d2d2d2d2d2d2d2d2d2d2d2d2d2d2d000000000000000000000081525061140f565b61098c8161140f565b6109ca6040518060400160405280601581526020017f2d2d2d2d2d2d2d2d2d2d2d2d2d2d2d2d2d2d2d2d0a000000000000000000000081525061140f565b80600c90805190602001906109e0929190612387565b506000610a15836109f084611b67565b604051602001610a01929190613101565b604051602081830303815290604052611b67565b9050600081604051602001610a2a9190613146565b6040516020818303038152906040529050610a453389611d25565b610a4f8882611d43565b610a7260405180606001604052806025815260200161390a602591398933611db7565b610a7c6007611e56565b7f49775e8e2ae049633387bd769e7ea3f98a78473e647c46bab3d99e60a50dd4f83389604051610aad9291906131f1565b60405180910390a15050505050505050565b610ada838383604051806020016040528060008152506110a9565b505050565b60606000610b13610aef84611979565b604051602001610aff9190613168565b604051602081830303815290604052611b26565b9050600a8054905081610b2691906137af565b9050600b8181548110610b62577f4e487b7100000000000000000000000000000000000000000000000000000000600052603260045260246000fd5b906000526020600020018054610b7790613734565b80601f0160208091040260200160405190810160405280929190818152602001828054610ba390613734565b8015610bf05780601f10610bc557610100808354040283529160200191610bf0565b820191906000526020600020905b815481529060010190602001808311610bd357829003601f168201915b5050505050915050919050565b6000806002600084815260200190815260200160002060009054906101000a900473ffffffffffffffffffffffffffffffffffffffff169050600073ffffffffffffffffffffffffffffffffffffffff168173ffffffffffffffffffffffffffffffffffffffff161415610ca6576040517f08c379a0000000000000000000000000000000000000000000000000000000008152600401610c9d90613375565b60405180910390fd5b80915050919050565b60008073ffffffffffffffffffffffffffffffffffffffff168273ffffffffffffffffffffffffffffffffffffffff161415610d20576040517f08c379a0000000000000000000000000000000000000000000000000000000008152600401610d1790613355565b60405180910390fd5b600360008373ffffffffffffffffffffffffffffffffffffffff1673ffffffffffffffffffffffffffffffffffffffff168152602001908152602001600020549050919050565b6000610d736007611b59565b905090565b606060018054610d8790613734565b80601f0160208091040260200160405190810160405280929190818152602001828054610db390613734565b8015610e005780601f10610dd557610100808354040283529160200191610e00565b820191906000526020600020905b815481529060010190602001808311610de357829003601f168201915b5050505050905090565b610e1261157e565b73ffffffffffffffffffffffffffffffffffffffff168273ffffffffffffffffffffffffffffffffffffffff161415610e80576040517f08c379a0000000000000000000000000000000000000000000000000000000008152600401610e77906132f5565b60405180910390fd5b8060056000610e8d61157e565b73ffffffffffffffffffffffffffffffffffffffff1673ffffffffffffffffffffffffffffffffffffffff16815260200190815260200160002060008473ffffffffffffffffffffffffffffffffffffffff1673ffffffffffffffffffffffffffffffffffffffff16815260200190815260200160002060006101000a81548160ff0219169083151502179055508173ffffffffffffffffffffffffffffffffffffffff16610f3a61157e565b73ffffffffffffffffffffffffffffffffffffffff167f17307eab39ab6107e8899845ad3d59bd9653f200f220920489ca2b5937696c3183604051610f7f919061321a565b60405180910390a35050565b60606000610fbf610f9b84611979565b604051602001610fab919061304c565b604051602081830303815290604052611b26565b905060098054905081610fd291906137af565b90506009818154811061100e577f4e487b7100000000000000000000000000000000000000000000000000000000600052603260045260246000fd5b90600052602060002001805461102390613734565b80601f016020809104026020016040519081016040528092919081815260200182805461104f90613734565b801561109c5780601f106110715761010080835404028352916020019161109c565b820191906000526020600020905b81548152906001019060200180831161107f57829003601f168201915b5050505050915050919050565b6110ba6110b461157e565b8361163f565b6110f9576040517f08c379a00000000000000000000000000000000000000000000000000000000081526004016110f090613475565b60405180910390fd5b61110584848484611e6c565b50505050565b6060600061113f61111b84611979565b60405160200161112b919061304c565b604051602081830303815290604052611b26565b9050600a805490508161115291906137af565b9050600a818154811061118e577f4e487b7100000000000000000000000000000000000000000000000000000000600052603260045260246000fd5b9060005260206000200180546111a390613734565b80601f01602080910402602001604051908101604052809291908181526020018280546111cf90613734565b801561121c5780601f106111f15761010080835404028352916020019161121c565b820191906000526020600020905b8154815290600101906020018083116111ff57829003601f168201915b5050505050915050919050565b606061123482611512565b611273576040517f08c379a000000000000000000000000000000000000000000000000000000000815260040161126a906133d5565b60405180910390fd5b600060066000848152602001908152602001600020805461129390613734565b80601f01602080910402602001604051908101604052809291908181526020018280546112bf90613734565b801561130c5780601f106112e15761010080835404028352916020019161130c565b820191906000526020600020905b8154815290600101906020018083116112ef57829003601f168201915b50505050509050600061131d611ec8565b9050600081511415611333578192505050611376565b600082511115611368578082604051602001611350929190613063565b60405160208183030381529060405292505050611376565b61137184611edf565b925050505b919050565b6000600560008473ffffffffffffffffffffffffffffffffffffffff1673ffffffffffffffffffffffffffffffffffffffff16815260200190815260200160002060008373ffffffffffffffffffffffffffffffffffffffff1673ffffffffffffffffffffffffffffffffffffffff16815260200190815260200160002060009054906101000a900460ff16905092915050565b6114a5816040516024016114239190613235565b6040516020818303038152906040527f41304fac000000000000000000000000000000000000000000000000000000007bffffffffffffffffffffffffffffffffffffffffffffffffffffffff19166020820180517bffffffffffffffffffffffffffffffffffffffffffffffffffffffff8381831617835250505050611f86565b50565b60007f01ffc9a7000000000000000000000000000000000000000000000000000000007bffffffffffffffffffffffffffffffffffffffffffffffffffffffff1916827bffffffffffffffffffffffffffffffffffffffffffffffffffffffff1916149050919050565b60008073ffffffffffffffffffffffffffffffffffffffff166002600084815260200190815260200160002060009054906101000a900473ffffffffffffffffffffffffffffffffffffffff1673ffffffffffffffffffffffffffffffffffffffff1614159050919050565b600033905090565b816004600083815260200190815260200160002060006101000a81548173ffffffffffffffffffffffffffffffffffffffff021916908373ffffffffffffffffffffffffffffffffffffffff160217905550808273ffffffffffffffffffffffffffffffffffffffff166115f983610bfd565b73ffffffffffffffffffffffffffffffffffffffff167f8c5be1e5ebec7d5bd14f71427d1e84f3dd0314c0f7b2291e5b200ac8c7c3b92560405160405180910390a45050565b600061164a82611512565b611689576040517f08c379a000000000000000000000000000000000000000000000000000000000815260040161168090613315565b60405180910390fd5b600061169483610bfd565b90508073ffffffffffffffffffffffffffffffffffffffff168473ffffffffffffffffffffffffffffffffffffffff16148061170357508373ffffffffffffffffffffffffffffffffffffffff166116eb8461056a565b73ffffffffffffffffffffffffffffffffffffffff16145b806117145750611713818561137b565b5b91505092915050565b8273ffffffffffffffffffffffffffffffffffffffff1661173d82610bfd565b73ffffffffffffffffffffffffffffffffffffffff1614611793576040517f08c379a000000000000000000000000000000000000000000000000000000000815260040161178a90613415565b60405180910390fd5b600073ffffffffffffffffffffffffffffffffffffffff168273ffffffffffffffffffffffffffffffffffffffff161415611803576040517f08c379a00000000000000000000000000000000000000000000000000000000081526004016117fa906132d5565b60405180910390fd5b61180e838383611faf565b611819600082611586565b6001600360008573ffffffffffffffffffffffffffffffffffffffff1673ffffffffffffffffffffffffffffffffffffffff1681526020019081526020016000206000828254611869919061364a565b925050819055506001600360008473ffffffffffffffffffffffffffffffffffffffff1673ffffffffffffffffffffffffffffffffffffffff16815260200190815260200160002060008282546118c09190613569565b92505081905550816002600083815260200190815260200160002060006101000a81548173ffffffffffffffffffffffffffffffffffffffff021916908373ffffffffffffffffffffffffffffffffffffffff160217905550808273ffffffffffffffffffffffffffffffffffffffff168473ffffffffffffffffffffffffffffffffffffffff167fddf252ad1be2c89b69c2b068fc378daa952ba7f163c4a11628f55a4df523b3ef60405160405180910390a4505050565b606060008214156119c1576040518060400160405280600181526020017f30000000000000000000000000000000000000000000000000000000000000008152509050611b21565b600082905060005b600082146119f35780806119dc90613766565b915050600a826119ec91906135bf565b91506119c9565b60008167ffffffffffffffff811115611a35577f4e487b7100000000000000000000000000000000000000000000000000000000600052604160045260246000fd5b6040519080825280601f01601f191660200182016040528015611a675781602001600182028036833780820191505090505b5090505b60008514611b1a57600182611a80919061364a565b9150600a85611a8f91906137af565b6030611a9b9190613569565b60f81b818381518110611ad7577f4e487b7100000000000000000000000000000000000000000000000000000000600052603260045260246000fd5b60200101907effffffffffffffffffffffffffffffffffffffffffffffffffffffffffffff1916908160001a905350600a85611b1391906135bf565b9450611a6b565b8093505050505b919050565b600081604051602001611b39919061304c565b6040516020818303038152906040528051906020012060001c9050919050565b600081600001549050919050565b60606000825190506000811415611b905760405180602001604052806000815250915050611d20565b60006003600283611ba19190613569565b611bab91906135bf565b6004611bb791906135f0565b90506000602082611bc89190613569565b67ffffffffffffffff811115611c07577f4e487b7100000000000000000000000000000000000000000000000000000000600052604160045260246000fd5b6040519080825280601f01601f191660200182016040528015611c395781602001600182028036833780820191505090505b509050600060405180606001604052806040815260200161392f604091399050600181016020830160005b86811015611cdd5760038101905062ffffff818a015116603f8160121c168401518060081b905060ff603f83600c1c1686015116810190508060081b905060ff603f8360061c1686015116810190508060081b905060ff603f831686015116810190508060e01b90508084526004840193505050611c64565b506003860660018114611cf75760028114611d0757611d12565b613d3d60f01b6002830352611d12565b603d60f81b60018303525b508484525050819450505050505b919050565b611d3f828260405180602001604052806000815250611fb4565b5050565b611d4c82611512565b611d8b576040517f08c379a0000000000000000000000000000000000000000000000000000000008152600401611d8290613395565b60405180910390fd5b80600660008481526020019081526020016000209080519060200190611db2929190612387565b505050565b611e51838383604051602401611dcf93929190613257565b6040516020818303038152906040527fe3849f79000000000000000000000000000000000000000000000000000000007bffffffffffffffffffffffffffffffffffffffffffffffffffffffff19166020820180517bffffffffffffffffffffffffffffffffffffffffffffffffffffffff8381831617835250505050611f86565b505050565b6001816000016000828254019250508190555050565b611e7784848461171d565b611e838484848461200f565b611ec2576040517f08c379a0000000000000000000000000000000000000000000000000000000008152600401611eb990613295565b60405180910390fd5b50505050565b606060405180602001604052806000815250905090565b6060611eea82611512565b611f29576040517f08c379a0000000000000000000000000000000000000000000000000000000008152600401611f2090613435565b60405180910390fd5b6000611f33611ec8565b90506000815111611f535760405180602001604052806000815250611f7e565b80611f5d84611979565b604051602001611f6e929190613063565b6040516020818303038152906040525b915050919050565b60008151905060006a636f6e736f6c652e6c6f679050602083016000808483855afa5050505050565b505050565b611fbe83836121a6565b611fcb600084848461200f565b61200a576040517f08c379a000000000000000000000000000000000000000000000000000000000815260040161200190613295565b60405180910390fd5b505050565b60006120308473ffffffffffffffffffffffffffffffffffffffff16612374565b15612199578373ffffffffffffffffffffffffffffffffffffffff1663150b7a0261205961157e565b8786866040518563ffffffff1660e01b815260040161207b94939291906131a5565b602060405180830381600087803b15801561209557600080fd5b505af19250505080156120c657506040513d601f19601f820116820180604052508101906120c391906126cb565b60015b612149573d80600081146120f6576040519150601f19603f3d011682016040523d82523d6000602084013e6120fb565b606091505b50600081511415612141576040517f08c379a000000000000000000000000000000000000000000000000000000000815260040161213890613295565b60405180910390fd5b805181602001fd5b63150b7a0260e01b7bffffffffffffffffffffffffffffffffffffffffffffffffffffffff1916817bffffffffffffffffffffffffffffffffffffffffffffffffffffffff19161491505061219e565b600190505b949350505050565b600073ffffffffffffffffffffffffffffffffffffffff168273ffffffffffffffffffffffffffffffffffffffff161415612216576040517f08c379a000000000000000000000000000000000000000000000000000000000815260040161220d906133b5565b60405180910390fd5b61221f81611512565b1561225f576040517f08c379a0000000000000000000000000000000000000000000000000000000008152600401612256906132b5565b60405180910390fd5b61226b60008383611faf565b6001600360008473ffffffffffffffffffffffffffffffffffffffff1673ffffffffffffffffffffffffffffffffffffffff16815260200190815260200160002060008282546122bb9190613569565b92505081905550816002600083815260200190815260200160002060006101000a81548173ffffffffffffffffffffffffffffffffffffffff021916908373ffffffffffffffffffffffffffffffffffffffff160217905550808273ffffffffffffffffffffffffffffffffffffffff16600073ffffffffffffffffffffffffffffffffffffffff167fddf252ad1be2c89b69c2b068fc378daa952ba7f163c4a11628f55a4df523b3ef60405160405180910390a45050565b600080823b905060008111915050919050565b82805461239390613734565b90600052602060002090601f0160209004810192826123b557600085556123fc565b82601f106123ce57805160ff19168380011785556123fc565b828001600101855582156123fc579182015b828111156123fb5782518255916020019190600101906123e0565b5b509050612409919061240d565b5090565b5b8082111561242657600081600090555060010161240e565b5090565b600061243d612438846134e1565b6134b0565b90508281526020810184848401111561245557600080fd5b6124608482856136f2565b509392505050565b600081359050612477816138ad565b92915050565b60008135905061248c816138c4565b92915050565b6000813590506124a1816138db565b92915050565b6000815190506124b6816138db565b92915050565b600082601f8301126124cd57600080fd5b81356124dd84826020860161242a565b91505092915050565b6000813590506124f5816138f2565b92915050565b60006020828403121561250d57600080fd5b600061251b84828501612468565b91505092915050565b6000806040838503121561253757600080fd5b600061254585828601612468565b925050602061255685828601612468565b9150509250929050565b60008060006060848603121561257557600080fd5b600061258386828701612468565b935050602061259486828701612468565b92505060406125a5868287016124e6565b9150509250925092565b600080600080608085870312156125c557600080fd5b60006125d387828801612468565b94505060206125e487828801612468565b93505060406125f5878288016124e6565b925050606085013567ffffffffffffffff81111561261257600080fd5b61261e878288016124bc565b91505092959194509250565b6000806040838503121561263d57600080fd5b600061264b85828601612468565b925050602061265c8582860161247d565b9150509250929050565b6000806040838503121561267957600080fd5b600061268785828601612468565b9250506020612698858286016124e6565b9150509250929050565b6000602082840312156126b457600080fd5b60006126c284828501612492565b91505092915050565b6000602082840312156126dd57600080fd5b60006126eb848285016124a7565b91505092915050565b60006020828403121561270657600080fd5b6000612714848285016124e6565b91505092915050565b6127268161367e565b82525050565b61273581613690565b82525050565b600061274682613526565b612750818561353c565b9350612760818560208601613701565b6127698161389c565b840191505092915050565b600061277f82613531565b612789818561354d565b9350612799818560208601613701565b6127a28161389c565b840191505092915050565b60006127b882613531565b6127c2818561355e565b93506127d2818560208601613701565b80840191505092915050565b600081546127eb81613734565b6127f5818661355e565b94506001821660008114612810576001811461282157612854565b60ff19831686528186019350612854565b61282a85613511565b60005b8381101561284c5781548189015260018201915060208101905061282d565b838801955050505b50505092915050565b600061286a60328361354d565b91507f4552433732313a207472616e7366657220746f206e6f6e20455243373231526560008301527f63656976657220696d706c656d656e74657200000000000000000000000000006020830152604082019050919050565b60006128d0601c8361354d565b91507f4552433732313a20746f6b656e20616c7265616479206d696e746564000000006000830152602082019050919050565b600061291060248361354d565b91507f4552433732313a207472616e7366657220746f20746865207a65726f2061646460008301527f72657373000000000000000000000000000000000000000000000000000000006020830152604082019050919050565b600061297660198361354d565b91507f4552433732313a20617070726f766520746f2063616c6c6572000000000000006000830152602082019050919050565b60006129b660638361355e565b91507f222c20226465736372697074696f6e223a20224120686967686c79206163636c60008301527f61696d656420636f6c6c656374696f6e206f6620737175617265732e222c202260208301527f696d616765223a2022646174613a696d6167652f7376672b786d6c3b6261736560408301527f36342c00000000000000000000000000000000000000000000000000000000006060830152606382019050919050565b6000612a68602c8361354d565b91507f4552433732313a206f70657261746f7220717565727920666f72206e6f6e657860008301527f697374656e7420746f6b656e00000000000000000000000000000000000000006020830152604082019050919050565b6000612ace600d8361355e565b91507f3c2f746578743e3c2f7376673e000000000000000000000000000000000000006000830152600d82019050919050565b6000612b0e60388361354d565b91507f4552433732313a20617070726f76652063616c6c6572206973206e6f74206f7760008301527f6e6572206e6f7220617070726f76656420666f7220616c6c00000000000000006020830152604082019050919050565b6000612b74602a8361354d565b91507f4552433732313a2062616c616e636520717565727920666f7220746865207a6560008301527f726f2061646472657373000000000000000000000000000000000000000000006020830152604082019050919050565b6000612bda60298361354d565b91507f4552433732313a206f776e657220717565727920666f72206e6f6e657869737460008301527f656e7420746f6b656e00000000000000000000000000000000000000000000006020830152604082019050919050565b6000612c40602e8361354d565b91507f45524337323155524953746f726167653a2055524920736574206f66206e6f6e60008301527f6578697374656e7420746f6b656e0000000000000000000000000000000000006020830152604082019050919050565b6000612ca660028361355e565b91507f227d0000000000000000000000000000000000000000000000000000000000006000830152600282019050919050565b6000612ce660208361354d565b91507f4552433732313a206d696e7420746f20746865207a65726f20616464726573736000830152602082019050919050565b6000612d2660318361354d565b91507f45524337323155524953746f726167653a2055524920717565727920666f722060008301527f6e6f6e6578697374656e7420746f6b656e0000000000000000000000000000006020830152604082019050919050565b6000612d8c602c8361354d565b91507f4552433732313a20617070726f76656420717565727920666f72206e6f6e657860008301527f697374656e7420746f6b656e00000000000000000000000000000000000000006020830152604082019050919050565b6000612df260298361354d565b91507f4552433732313a207472616e73666572206f6620746f6b656e2074686174206960008301527f73206e6f74206f776e00000000000000000000000000000000000000000000006020830152604082019050919050565b6000612e58602f8361354d565b91507f4552433732314d657461646174613a2055524920717565727920666f72206e6f60008301527f6e6578697374656e7420746f6b656e00000000000000000000000000000000006020830152604082019050919050565b6000612ebe600a8361355e565b91507f7b226e616d65223a2022000000000000000000000000000000000000000000006000830152600a82019050919050565b6000612efe60218361354d565b91507f4552433732313a20617070726f76616c20746f2063757272656e74206f776e6560008301527f72000000000000000000000000000000000000000000000000000000000000006020830152604082019050919050565b6000612f64601d8361355e565b91507f646174613a6170706c69636174696f6e2f6a736f6e3b6261736536342c0000006000830152601d82019050919050565b6000612fa460318361354d565b91507f4552433732313a207472616e736665722063616c6c6572206973206e6f74206f60008301527f776e6572206e6f7220617070726f7665640000000000000000000000000000006020830152604082019050919050565b600061300a60058361355e565b91507f434f4c4f520000000000000000000000000000000000000000000000000000006000830152600582019050919050565b613046816136e8565b82525050565b600061305882846127ad565b915081905092915050565b600061306f82856127ad565b915061307b82846127ad565b91508190509392505050565b600061309382866127ad565b915061309f82856127ad565b91506130ab82846127ad565b9150819050949350505050565b60006130c482876127de565b91506130d082866127de565b91506130dc82856127de565b91506130e882846127ad565b91506130f382612ac1565b915081905095945050505050565b600061310c82612eb1565b915061311882856127ad565b9150613123826129a9565b915061312f82846127ad565b915061313a82612c99565b91508190509392505050565b600061315182612f57565b915061315d82846127ad565b915081905092915050565b600061317382612ffd565b915061317f82846127ad565b915081905092915050565b600060208201905061319f600083018461271d565b92915050565b60006080820190506131ba600083018761271d565b6131c7602083018661271d565b6131d4604083018561303d565b81810360608301526131e6818461273b565b905095945050505050565b6000604082019050613206600083018561271d565b613213602083018461303d565b9392505050565b600060208201905061322f600083018461272c565b92915050565b6000602082019050818103600083015261324f8184612774565b905092915050565b600060608201905081810360008301526132718186612774565b9050613280602083018561303d565b61328d604083018461271d565b949350505050565b600060208201905081810360008301526132ae8161285d565b9050919050565b600060208201905081810360008301526132ce816128c3565b9050919050565b600060208201905081810360008301526132ee81612903565b9050919050565b6000602082019050818103600083015261330e81612969565b9050919050565b6000602082019050818103600083015261332e81612a5b565b9050919050565b6000602082019050818103600083015261334e81612b01565b9050919050565b6000602082019050818103600083015261336e81612b67565b9050919050565b6000602082019050818103600083015261338e81612bcd565b9050919050565b600060208201905081810360008301526133ae81612c33565b9050919050565b600060208201905081810360008301526133ce81612cd9565b9050919050565b600060208201905081810360008301526133ee81612d19565b9050919050565b6000602082019050818103600083015261340e81612d7f565b9050919050565b6000602082019050818103600083015261342e81612de5565b9050919050565b6000602082019050818103600083015261344e81612e4b565b9050919050565b6000602082019050818103600083015261346e81612ef1565b9050919050565b6000602082019050818103600083015261348e81612f97565b9050919050565b60006020820190506134aa600083018461303d565b92915050565b6000604051905081810181811067ffffffffffffffff821117156134d7576134d661386d565b5b8060405250919050565b600067ffffffffffffffff8211156134fc576134fb61386d565b5b601f19601f8301169050602081019050919050565b60008190508160005260206000209050919050565b600081519050919050565b600081519050919050565b600082825260208201905092915050565b600082825260208201905092915050565b600081905092915050565b6000613574826136e8565b915061357f836136e8565b9250827fffffffffffffffffffffffffffffffffffffffffffffffffffffffffffffffff038211156135b4576135b36137e0565b5b828201905092915050565b60006135ca826136e8565b91506135d5836136e8565b9250826135e5576135e461380f565b5b828204905092915050565b60006135fb826136e8565b9150613606836136e8565b9250817fffffffffffffffffffffffffffffffffffffffffffffffffffffffffffffffff048311821515161561363f5761363e6137e0565b5b828202905092915050565b6000613655826136e8565b9150613660836136e8565b925082821015613673576136726137e0565b5b828203905092915050565b6000613689826136c8565b9050919050565b60008115159050919050565b60007fffffffff0000000000000000000000000000000000000000000000000000000082169050919050565b600073ffffffffffffffffffffffffffffffffffffffff82169050919050565b6000819050919050565b82818337600083830152505050565b60005b8381101561371f578082015181840152602081019050613704565b8381111561372e576000848401525b50505050565b6000600282049050600182168061374c57607f821691505b602082108114156137605761375f61383e565b5b50919050565b6000613771826136e8565b91507fffffffffffffffffffffffffffffffffffffffffffffffffffffffffffffffff8214156137a4576137a36137e0565b5b600182019050919050565b60006137ba826136e8565b91506137c5836136e8565b9250826137d5576137d461380f565b5b828206905092915050565b7f4e487b7100000000000000000000000000000000000000000000000000000000600052601160045260246000fd5b7f4e487b7100000000000000000000000000000000000000000000000000000000600052601260045260246000fd5b7f4e487b7100000000000000000000000000000000000000000000000000000000600052602260045260246000fd5b7f4e487b7100000000000000000000000000000000000000000000000000000000600052604160045260246000fd5b6000601f19601f8301169050919050565b6138b68161367e565b81146138c157600080fd5b50565b6138cd81613690565b81146138d857600080fd5b50565b6138e48161369c565b81146138ef57600080fd5b50565b6138fb816136e8565b811461390657600080fd5b5056fe416e204e465420772f20494420257320686173206265656e206d696e74656420746f2025734142434445464748494a4b4c4d4e4f505152535455565758595a6162636465666768696a6b6c6d6e6f707172737475767778797a303132333435363738392b2fa26469706673582212207d3fb2005a6ba95f95229ccd9715554913d2204d9bdd07b9f5313d48b8d1649164736f6c634300080000333c73766720786d6c6e733d27687474703a2f2f7777772e77332e6f72672f323030302f73766727207072657365727665417370656374526174696f3d27784d696e594d696e206d656574272076696577426f783d273020302033353020333530273e3c7374796c653e2e62617365207b2066696c6c3a2077686974653b20666f6e742d66616d696c793a20726f626f746f3b20666f6e742d73697a653a20323470783b207d3c2f7374796c653e3c726563742077696474683d273130302527206865696768743d2731303025272066696c6c3d275468697320697320646f70652c20756e6971756520616e642062656175746966756c2127202f3e3c7465787420783d273530252720793d273530252720636c6173733d27626173652720646f6d696e616e742d626173656c696e653d276d6964646c652720746578742d616e63686f723d276d6964646c6527203e",
  "linkReferences": {},
  "deployedLinkReferences": {}
}