{
  "_format": "hh-sol-artifact-1",
  "contractName": "EpicNFT",
  "sourceName": "contracts/EpicNFT.sol",
  "abi": [
    {
      "inputs": [],
      "stateMutability": "nonpayable",
      "type": "constructor"
    },
    {
      "anonymous": false,
      "inputs": [
        {
          "indexed": true,
          "internalType": "address",
          "name": "owner",
          "type": "address"
        },
        {
          "indexed": true,
          "internalType": "address",
          "name": "approved",
          "type": "address"
        },
        {
          "indexed": true,
          "internalType": "uint256",
          "name": "tokenId",
          "type": "uint256"
        }
      ],
      "name": "Approval",
      "type": "event"
    },
    {
      "anonymous": false,
      "inputs": [
        {
          "indexed": true,
          "internalType": "address",
          "name": "owner",
          "type": "address"
        },
        {
          "indexed": true,
          "internalType": "address",
          "name": "operator",
          "type": "address"
        },
        {
          "indexed": false,
          "internalType": "bool",
          "name": "approved",
          "type": "bool"
        }
      ],
      "name": "ApprovalForAll",
      "type": "event"
    },
    {
      "anonymous": false,
      "inputs": [
        {
          "indexed": false,
          "internalType": "address",
          "name": "sender",
          "type": "address"
        },
        {
          "indexed": false,
          "internalType": "uint256",
          "name": "tokenId",
          "type": "uint256"
        }
      ],
      "name": "NewEpicNFTMinted",
      "type": "event"
    },
    {
      "anonymous": false,
      "inputs": [
        {
          "indexed": true,
          "internalType": "address",
          "name": "from",
          "type": "address"
        },
        {
          "indexed": true,
          "internalType": "address",
          "name": "to",
          "type": "address"
        },
        {
          "indexed": true,
          "internalType": "uint256",
          "name": "tokenId",
          "type": "uint256"
        }
      ],
      "name": "Transfer",
      "type": "event"
    },
    {
      "inputs": [
        {
          "internalType": "address",
          "name": "to",
          "type": "address"
        },
        {
          "internalType": "uint256",
          "name": "tokenId",
          "type": "uint256"
        }
      ],
      "name": "approve",
      "outputs": [],
      "stateMutability": "nonpayable",
      "type": "function"
    },
    {
      "inputs": [
        {
          "internalType": "address",
          "name": "owner",
          "type": "address"
        }
      ],
      "name": "balanceOf",
      "outputs": [
        {
          "internalType": "uint256",
          "name": "",
          "type": "uint256"
        }
      ],
      "stateMutability": "view",
      "type": "function"
    },
    {
      "inputs": [
        {
          "internalType": "uint256",
          "name": "tokenId",
          "type": "uint256"
        }
      ],
      "name": "getApproved",
      "outputs": [
        {
          "internalType": "address",
          "name": "",
          "type": "address"
        }
      ],
      "stateMutability": "view",
      "type": "function"
    },
    {
      "inputs": [],
      "name": "getCrucifix",
      "outputs": [],
      "stateMutability": "nonpayable",
      "type": "function"
    },
    {
      "inputs": [
        {
          "internalType": "address",
          "name": "owner",
          "type": "address"
        },
        {
          "internalType": "address",
          "name": "operator",
          "type": "address"
        }
      ],
      "name": "isApprovedForAll",
      "outputs": [
        {
          "internalType": "bool",
          "name": "",
          "type": "bool"
        }
      ],
      "stateMutability": "view",
      "type": "function"
    },
    {
      "inputs": [],
      "name": "mintedSoFar",
      "outputs": [
        {
          "internalType": "uint256",
          "name": "",
          "type": "uint256"
        }
      ],
      "stateMutability": "view",
      "type": "function"
    },
    {
      "inputs": [],
      "name": "name",
      "outputs": [
        {
          "internalType": "string",
          "name": "",
          "type": "string"
        }
      ],
      "stateMutability": "view",
      "type": "function"
    },
    {
      "inputs": [
        {
          "internalType": "uint256",
          "name": "tokenId",
          "type": "uint256"
        }
      ],
      "name": "ownerOf",
      "outputs": [
        {
          "internalType": "address",
          "name": "",
          "type": "address"
        }
      ],
      "stateMutability": "view",
      "type": "function"
    },
    {
      "inputs": [
        {
          "internalType": "uint256",
          "name": "tokenId",
          "type": "uint256"
        }
      ],
      "name": "pickRandomFirstWord",
      "outputs": [
        {
          "internalType": "string",
          "name": "",
          "type": "string"
        }
      ],
      "stateMutability": "view",
      "type": "function"
    },
    {
      "inputs": [
        {
          "internalType": "uint256",
          "name": "tokenId",
          "type": "uint256"
        }
      ],
      "name": "pickRandomSecondWord",
      "outputs": [
        {
          "internalType": "string",
          "name": "",
          "type": "string"
        }
      ],
      "stateMutability": "view",
      "type": "function"
    },
    {
      "inputs": [
        {
          "internalType": "uint256",
          "name": "tokenId",
          "type": "uint256"
        }
      ],
      "name": "pickRandomThirdWord",
      "outputs": [
        {
          "internalType": "string",
          "name": "",
          "type": "string"
        }
      ],
      "stateMutability": "view",
      "type": "function"
    },
    {
      "inputs": [
        {
          "internalType": "address",
          "name": "from",
          "type": "address"
        },
        {
          "internalType": "address",
          "name": "to",
          "type": "address"
        },
        {
          "internalType": "uint256",
          "name": "tokenId",
          "type": "uint256"
        }
      ],
      "name": "safeTransferFrom",
      "outputs": [],
      "stateMutability": "nonpayable",
      "type": "function"
    },
    {
      "inputs": [
        {
          "internalType": "address",
          "name": "from",
          "type": "address"
        },
        {
          "internalType": "address",
          "name": "to",
          "type": "address"
        },
        {
          "internalType": "uint256",
          "name": "tokenId",
          "type": "uint256"
        },
        {
          "internalType": "bytes",
          "name": "_data",
          "type": "bytes"
        }
      ],
      "name": "safeTransferFrom",
      "outputs": [],
      "stateMutability": "nonpayable",
      "type": "function"
    },
    {
      "inputs": [
        {
          "internalType": "address",
          "name": "operator",
          "type": "address"
        },
        {
          "internalType": "bool",
          "name": "approved",
          "type": "bool"
        }
      ],
      "name": "setApprovalForAll",
      "outputs": [],
      "stateMutability": "nonpayable",
      "type": "function"
    },
    {
      "inputs": [
        {
          "internalType": "bytes4",
          "name": "interfaceId",
          "type": "bytes4"
        }
      ],
      "name": "supportsInterface",
      "outputs": [
        {
          "internalType": "bool",
          "name": "",
          "type": "bool"
        }
      ],
      "stateMutability": "view",
      "type": "function"
    },
    {
      "inputs": [],
      "name": "symbol",
      "outputs": [
        {
          "internalType": "string",
          "name": "",
          "type": "string"
        }
      ],
      "stateMutability": "view",
      "type": "function"
    },
    {
      "inputs": [
        {
          "internalType": "uint256",
          "name": "tokenId",
          "type": "uint256"
        }
      ],
      "name": "tokenURI",
      "outputs": [
        {
          "internalType": "string",
          "name": "",
          "type": "string"
        }
      ],
      "stateMutability": "view",
      "type": "function"
    },
    {
      "inputs": [
        {
          "internalType": "address",
          "name": "from",
          "type": "address"
        },
        {
          "internalType": "address",
          "name": "to",
          "type": "address"
        },
        {
          "internalType": "uint256",
          "name": "tokenId",
          "type": "uint256"
        }
      ],
      "name": "transferFrom",
      "outputs": [],
      "stateMutability": "nonpayable",
      "type": "function"
    }
  ],
  "bytecode": "0x608060405260405180610160016040528061012f8152602001620042c761012f913960089080519060200190620000389291906200067e565b506040518060a001604052806040518060400160405280600681526020017f4c6562726f6e000000000000000000000000000000000000000000000000000081525081526020016040518060400160405280600581526020017f6b616e796500000000000000000000000000000000000000000000000000000081525081526020016040518060400160405280600481526020017f456c6f6e0000000000000000000000000000000000000000000000000000000081525081526020016040518060400160405280600581526020017f537465766500000000000000000000000000000000000000000000000000000081525081526020016040518060400160405280600781526020017f4a6f73684352370000000000000000000000000000000000000000000000000081525081525060099060056200017b9291906200070f565b506040518060e001604052806040518060400160405280600481526020017f506c61790000000000000000000000000000000000000000000000000000000081525081526020016040518060400160405280600481526020017f507261790000000000000000000000000000000000000000000000000000000081525081526020016040518060400160405280600381526020017f456174000000000000000000000000000000000000000000000000000000000081525081526020016040518060400160405280600581526020017f4c6561726e00000000000000000000000000000000000000000000000000000081525081526020016040518060400160405280600481526020017f576f726b0000000000000000000000000000000000000000000000000000000081525081526020016040518060400160405280600581526020017f447265616d00000000000000000000000000000000000000000000000000000081525081526020016040518060400160405280600581526020017f536c656570000000000000000000000000000000000000000000000000000000815250815250600a9060076200033492919062000776565b506040518060c001604052806040518060400160405280600481526020017f4c6966650000000000000000000000000000000000000000000000000000000081525081526020016040518060400160405280600481526020017f4c6561640000000000000000000000000000000000000000000000000000000081525081526020016040518060400160405280600481526020017f466f6f640000000000000000000000000000000000000000000000000000000081525081526020016040518060400160405280600481526020017f486172640000000000000000000000000000000000000000000000000000000081525081526020016040518060400160405280600481526020017f4c6966650000000000000000000000000000000000000000000000000000000081525081526020016040518060400160405280600581526020017f4d75736963000000000000000000000000000000000000000000000000000000815250815250600b906006620004b2929190620007dd565b50348015620004c057600080fd5b506040518060400160405280600881526020017f43727563696669780000000000000000000000000000000000000000000000008152506040518060400160405280600681526020017f53515541524500000000000000000000000000000000000000000000000000008152508160009080519060200190620005459291906200067e565b5080600190805190602001906200055e9291906200067e565b505050620005ac6040518060400160405280601e81526020017f54686973206973206d79204e465420636f6e74726163742e20576f6168210000815250620005b260201b6200127a1760201c565b620009fe565b6200065281604051602401620005c9919062000912565b6040516020818303038152906040527f41304fac000000000000000000000000000000000000000000000000000000007bffffffffffffffffffffffffffffffffffffffffffffffffffffffff19166020820180517bffffffffffffffffffffffffffffffffffffffffffffffffffffffff83818316178352505050506200065560201b60201c565b50565b60008151905060006a636f6e736f6c652e6c6f679050602083016000808483855afa5050505050565b8280546200068c9062000988565b90600052602060002090601f016020900481019282620006b05760008555620006fc565b82601f10620006cb57805160ff1916838001178555620006fc565b82800160010185558215620006fc579182015b82811115620006fb578251825591602001919060010190620006de565b5b5090506200070b919062000844565b5090565b82805482825590600052602060002090810192821562000763579160200282015b8281111562000762578251829080519060200190620007519291906200067e565b509160200191906001019062000730565b5b50905062000772919062000863565b5090565b828054828255906000526020600020908101928215620007ca579160200282015b82811115620007c9578251829080519060200190620007b89291906200067e565b509160200191906001019062000797565b5b509050620007d9919062000863565b5090565b82805482825590600052602060002090810192821562000831579160200282015b82811115620008305782518290805190602001906200081f9291906200067e565b5091602001919060010190620007fe565b5b50905062000840919062000863565b5090565b5b808211156200085f57600081600090555060010162000845565b5090565b5b808211156200088757600081816200087d91906200088b565b5060010162000864565b5090565b508054620008999062000988565b6000825580601f10620008ad5750620008ce565b601f016020900490600052602060002090810190620008cd919062000844565b5b50565b6000620008de8262000936565b620008ea818562000941565b9350620008fc81856020860162000952565b6200090781620009ed565b840191505092915050565b600060208201905081810360008301526200092e8184620008d1565b905092915050565b600081519050919050565b600082825260208201905092915050565b60005b838110156200097257808201518184015260208101905062000955565b8381111562000982576000848401525b50505050565b60006002820490506001821680620009a157607f821691505b60208210811415620009b857620009b7620009be565b5b50919050565b7f4e487b7100000000000000000000000000000000000000000000000000000000600052602260045260246000fd5b6000601f19601f8301169050919050565b6138b98062000a0e6000396000f3fe608060405234801561001057600080fd5b50600436106101165760003560e01c806370a08231116100a2578063b187301f11610071578063b187301f146102df578063b88d4fde1461030f578063c575757a1461032b578063c87b56dd1461035b578063e985e9c51461038b57610116565b806370a082311461025757806393bd3da51461028757806395d89b41146102a5578063a22cb465146102c357610116565b806323b872dd116100e957806323b872dd146101b55780632de38d68146101d157806342842e0e146102015780634f9866e01461021d5780636352211e1461022757610116565b806301ffc9a71461011b57806306fdde031461014b578063081812fc14610169578063095ea7b314610199575b600080fd5b6101356004803603810190610130919061250d565b6103bb565b604051610142919061312f565b60405180910390f35b61015361049d565b604051610160919061314a565b60405180910390f35b610183600480360381019061017e919061255f565b61052f565b604051610190919061309f565b60405180910390f35b6101b360048036038101906101ae91906124d1565b6105b4565b005b6101cf60048036038101906101ca91906123cb565b6106cc565b005b6101eb60048036038101906101e6919061255f565b61072c565b6040516101f8919061314a565b60405180910390f35b61021b600480360381019061021691906123cb565b61084a565b005b61022561086a565b005b610241600480360381019061023c919061255f565b610a68565b60405161024e919061309f565b60405180910390f35b610271600480360381019061026c9190612366565b610b1a565b60405161027e91906133aa565b60405180910390f35b61028f610bd2565b60405161029c91906133aa565b60405180910390f35b6102ad610be3565b6040516102ba919061314a565b60405180910390f35b6102dd60048036038101906102d89190612495565b610c75565b005b6102f960048036038101906102f4919061255f565b610df6565b604051610306919061314a565b60405180910390f35b6103296004803603810190610324919061241a565b610f14565b005b6103456004803603810190610340919061255f565b610f76565b604051610352919061314a565b60405180910390f35b6103756004803603810190610370919061255f565b611094565b604051610382919061314a565b60405180910390f35b6103a560048036038101906103a0919061238f565b6111e6565b6040516103b2919061312f565b60405180910390f35b60007f80ac58cd000000000000000000000000000000000000000000000000000000007bffffffffffffffffffffffffffffffffffffffffffffffffffffffff1916827bffffffffffffffffffffffffffffffffffffffffffffffffffffffff1916148061048657507f5b5e139f000000000000000000000000000000000000000000000000000000007bffffffffffffffffffffffffffffffffffffffffffffffffffffffff1916827bffffffffffffffffffffffffffffffffffffffffffffffffffffffff1916145b80610496575061049582611313565b5b9050919050565b6060600080546104ac90613649565b80601f01602080910402602001604051908101604052809291908181526020018280546104d890613649565b80156105255780601f106104fa57610100808354040283529160200191610525565b820191906000526020600020905b81548152906001019060200180831161050857829003601f168201915b5050505050905090565b600061053a8261137d565b610579576040517f08c379a00000000000000000000000000000000000000000000000000000000081526004016105709061330a565b60405180910390fd5b6004600083815260200190815260200160002060009054906101000a900473ffffffffffffffffffffffffffffffffffffffff169050919050565b60006105bf82610a68565b90508073ffffffffffffffffffffffffffffffffffffffff168373ffffffffffffffffffffffffffffffffffffffff161415610630576040517f08c379a00000000000000000000000000000000000000000000000000000000081526004016106279061336a565b60405180910390fd5b8073ffffffffffffffffffffffffffffffffffffffff1661064f6113e9565b73ffffffffffffffffffffffffffffffffffffffff16148061067e575061067d816106786113e9565b6111e6565b5b6106bd576040517f08c379a00000000000000000000000000000000000000000000000000000000081526004016106b49061324a565b60405180910390fd5b6106c783836113f1565b505050565b6106dd6106d76113e9565b826114aa565b61071c576040517f08c379a00000000000000000000000000000000000000000000000000000000081526004016107139061338a565b60405180910390fd5b610727838383611588565b505050565b6060600061076061073c846117e4565b60405160200161074c919061305b565b604051602081830303815290604052611991565b90506009805490508161077391906136c4565b9050600981815481106107af577f4e487b7100000000000000000000000000000000000000000000000000000000600052603260045260246000fd5b9060005260206000200180546107c490613649565b80601f01602080910402602001604051908101604052809291908181526020018280546107f090613649565b801561083d5780601f106108125761010080835404028352916020019161083d565b820191906000526020600020905b81548152906001019060200180831161082057829003601f168201915b5050505050915050919050565b61086583838360405180602001604052806000815250610f14565b505050565b603261087660076119c4565b111561088157600080fd5b600061088d60076119c4565b9050600061089a8261072c565b905060006108a783610df6565b905060006108b484610f76565b905060008383836040516020016108cd93929190612f72565b604051602081830303815290604052905060006008826040516020016108f4929190612fa3565b60405160208183030381529060405290506109436040518060400160405280601581526020017f0a2d2d2d2d2d2d2d2d2d2d2d2d2d2d2d2d2d2d2d2d000000000000000000000081525061127a565b61094c8161127a565b61098a6040518060400160405280601581526020017f2d2d2d2d2d2d2d2d2d2d2d2d2d2d2d2d2d2d2d2d0a000000000000000000000081525061127a565b60006109be83610999846119d2565b6040516020016109aa929190613016565b6040516020818303038152906040526119d2565b90506000816040516020016109d3919061307d565b60405160208183030381529060405290506109ee3389611b90565b6109f88882611bae565b610a1b60405180606001604052806025815260200161381f602591398933611c22565b610a256007611cc1565b7febb98688741ffa4c7589bf325de30cf7becb63de567842e1ccdb6cb949fdc82c3389604051610a56929190613106565b60405180910390a15050505050505050565b6000806002600084815260200190815260200160002060009054906101000a900473ffffffffffffffffffffffffffffffffffffffff169050600073ffffffffffffffffffffffffffffffffffffffff168173ffffffffffffffffffffffffffffffffffffffff161415610b11576040517f08c379a0000000000000000000000000000000000000000000000000000000008152600401610b089061328a565b60405180910390fd5b80915050919050565b60008073ffffffffffffffffffffffffffffffffffffffff168273ffffffffffffffffffffffffffffffffffffffff161415610b8b576040517f08c379a0000000000000000000000000000000000000000000000000000000008152600401610b829061326a565b60405180910390fd5b600360008373ffffffffffffffffffffffffffffffffffffffff1673ffffffffffffffffffffffffffffffffffffffff168152602001908152602001600020549050919050565b6000610bde60076119c4565b905090565b606060018054610bf290613649565b80601f0160208091040260200160405190810160405280929190818152602001828054610c1e90613649565b8015610c6b5780601f10610c4057610100808354040283529160200191610c6b565b820191906000526020600020905b815481529060010190602001808311610c4e57829003601f168201915b5050505050905090565b610c7d6113e9565b73ffffffffffffffffffffffffffffffffffffffff168273ffffffffffffffffffffffffffffffffffffffff161415610ceb576040517f08c379a0000000000000000000000000000000000000000000000000000000008152600401610ce29061320a565b60405180910390fd5b8060056000610cf86113e9565b73ffffffffffffffffffffffffffffffffffffffff1673ffffffffffffffffffffffffffffffffffffffff16815260200190815260200160002060008473ffffffffffffffffffffffffffffffffffffffff1673ffffffffffffffffffffffffffffffffffffffff16815260200190815260200160002060006101000a81548160ff0219169083151502179055508173ffffffffffffffffffffffffffffffffffffffff16610da56113e9565b73ffffffffffffffffffffffffffffffffffffffff167f17307eab39ab6107e8899845ad3d59bd9653f200f220920489ca2b5937696c3183604051610dea919061312f565b60405180910390a35050565b60606000610e2a610e06846117e4565b604051602001610e169190612ff4565b604051602081830303815290604052611991565b9050600a8054905081610e3d91906136c4565b9050600a8181548110610e79577f4e487b7100000000000000000000000000000000000000000000000000000000600052603260045260246000fd5b906000526020600020018054610e8e90613649565b80601f0160208091040260200160405190810160405280929190818152602001828054610eba90613649565b8015610f075780601f10610edc57610100808354040283529160200191610f07565b820191906000526020600020905b815481529060010190602001808311610eea57829003601f168201915b5050505050915050919050565b610f25610f1f6113e9565b836114aa565b610f64576040517f08c379a0000000000000000000000000000000000000000000000000000000008152600401610f5b9061338a565b60405180910390fd5b610f7084848484611cd7565b50505050565b60606000610faa610f86846117e4565b604051602001610f969190612fd2565b604051602081830303815290604052611991565b9050600b8054905081610fbd91906136c4565b9050600b8181548110610ff9577f4e487b7100000000000000000000000000000000000000000000000000000000600052603260045260246000fd5b90600052602060002001805461100e90613649565b80601f016020809104026020016040519081016040528092919081815260200182805461103a90613649565b80156110875780601f1061105c57610100808354040283529160200191611087565b820191906000526020600020905b81548152906001019060200180831161106a57829003601f168201915b5050505050915050919050565b606061109f8261137d565b6110de576040517f08c379a00000000000000000000000000000000000000000000000000000000081526004016110d5906132ea565b60405180910390fd5b60006006600084815260200190815260200160002080546110fe90613649565b80601f016020809104026020016040519081016040528092919081815260200182805461112a90613649565b80156111775780601f1061114c57610100808354040283529160200191611177565b820191906000526020600020905b81548152906001019060200180831161115a57829003601f168201915b505050505090506000611188611d33565b905060008151141561119e5781925050506111e1565b6000825111156111d35780826040516020016111bb929190612f4e565b604051602081830303815290604052925050506111e1565b6111dc84611d4a565b925050505b919050565b6000600560008473ffffffffffffffffffffffffffffffffffffffff1673ffffffffffffffffffffffffffffffffffffffff16815260200190815260200160002060008373ffffffffffffffffffffffffffffffffffffffff1673ffffffffffffffffffffffffffffffffffffffff16815260200190815260200160002060009054906101000a900460ff16905092915050565b6113108160405160240161128e919061314a565b6040516020818303038152906040527f41304fac000000000000000000000000000000000000000000000000000000007bffffffffffffffffffffffffffffffffffffffffffffffffffffffff19166020820180517bffffffffffffffffffffffffffffffffffffffffffffffffffffffff8381831617835250505050611df1565b50565b60007f01ffc9a7000000000000000000000000000000000000000000000000000000007bffffffffffffffffffffffffffffffffffffffffffffffffffffffff1916827bffffffffffffffffffffffffffffffffffffffffffffffffffffffff1916149050919050565b60008073ffffffffffffffffffffffffffffffffffffffff166002600084815260200190815260200160002060009054906101000a900473ffffffffffffffffffffffffffffffffffffffff1673ffffffffffffffffffffffffffffffffffffffff1614159050919050565b600033905090565b816004600083815260200190815260200160002060006101000a81548173ffffffffffffffffffffffffffffffffffffffff021916908373ffffffffffffffffffffffffffffffffffffffff160217905550808273ffffffffffffffffffffffffffffffffffffffff1661146483610a68565b73ffffffffffffffffffffffffffffffffffffffff167f8c5be1e5ebec7d5bd14f71427d1e84f3dd0314c0f7b2291e5b200ac8c7c3b92560405160405180910390a45050565b60006114b58261137d565b6114f4576040517f08c379a00000000000000000000000000000000000000000000000000000000081526004016114eb9061322a565b60405180910390fd5b60006114ff83610a68565b90508073ffffffffffffffffffffffffffffffffffffffff168473ffffffffffffffffffffffffffffffffffffffff16148061156e57508373ffffffffffffffffffffffffffffffffffffffff166115568461052f565b73ffffffffffffffffffffffffffffffffffffffff16145b8061157f575061157e81856111e6565b5b91505092915050565b8273ffffffffffffffffffffffffffffffffffffffff166115a882610a68565b73ffffffffffffffffffffffffffffffffffffffff16146115fe576040517f08c379a00000000000000000000000000000000000000000000000000000000081526004016115f59061332a565b60405180910390fd5b600073ffffffffffffffffffffffffffffffffffffffff168273ffffffffffffffffffffffffffffffffffffffff16141561166e576040517f08c379a0000000000000000000000000000000000000000000000000000000008152600401611665906131ea565b60405180910390fd5b611679838383611e1a565b6116846000826113f1565b6001600360008573ffffffffffffffffffffffffffffffffffffffff1673ffffffffffffffffffffffffffffffffffffffff16815260200190815260200160002060008282546116d4919061355f565b925050819055506001600360008473ffffffffffffffffffffffffffffffffffffffff1673ffffffffffffffffffffffffffffffffffffffff168152602001908152602001600020600082825461172b919061347e565b92505081905550816002600083815260200190815260200160002060006101000a81548173ffffffffffffffffffffffffffffffffffffffff021916908373ffffffffffffffffffffffffffffffffffffffff160217905550808273ffffffffffffffffffffffffffffffffffffffff168473ffffffffffffffffffffffffffffffffffffffff167fddf252ad1be2c89b69c2b068fc378daa952ba7f163c4a11628f55a4df523b3ef60405160405180910390a4505050565b6060600082141561182c576040518060400160405280600181526020017f3000000000000000000000000000000000000000000000000000000000000000815250905061198c565b600082905060005b6000821461185e5780806118479061367b565b915050600a8261185791906134d4565b9150611834565b60008167ffffffffffffffff8111156118a0577f4e487b7100000000000000000000000000000000000000000000000000000000600052604160045260246000fd5b6040519080825280601f01601f1916602001820160405280156118d25781602001600182028036833780820191505090505b5090505b60008514611985576001826118eb919061355f565b9150600a856118fa91906136c4565b6030611906919061347e565b60f81b818381518110611942577f4e487b7100000000000000000000000000000000000000000000000000000000600052603260045260246000fd5b60200101907effffffffffffffffffffffffffffffffffffffffffffffffffffffffffffff1916908160001a905350600a8561197e91906134d4565b94506118d6565b8093505050505b919050565b6000816040516020016119a49190612f37565b6040516020818303038152906040528051906020012060001c9050919050565b600081600001549050919050565b606060008251905060008114156119fb5760405180602001604052806000815250915050611b8b565b60006003600283611a0c919061347e565b611a1691906134d4565b6004611a229190613505565b90506000602082611a33919061347e565b67ffffffffffffffff811115611a72577f4e487b7100000000000000000000000000000000000000000000000000000000600052604160045260246000fd5b6040519080825280601f01601f191660200182016040528015611aa45781602001600182028036833780820191505090505b5090506000604051806060016040528060408152602001613844604091399050600181016020830160005b86811015611b485760038101905062ffffff818a015116603f8160121c168401518060081b905060ff603f83600c1c1686015116810190508060081b905060ff603f8360061c1686015116810190508060081b905060ff603f831686015116810190508060e01b90508084526004840193505050611acf565b506003860660018114611b625760028114611b7257611b7d565b613d3d60f01b6002830352611b7d565b603d60f81b60018303525b508484525050819450505050505b919050565b611baa828260405180602001604052806000815250611e1f565b5050565b611bb78261137d565b611bf6576040517f08c379a0000000000000000000000000000000000000000000000000000000008152600401611bed906132aa565b60405180910390fd5b80600660008481526020019081526020016000209080519060200190611c1d9291906121f2565b505050565b611cbc838383604051602401611c3a9392919061316c565b6040516020818303038152906040527fe3849f79000000000000000000000000000000000000000000000000000000007bffffffffffffffffffffffffffffffffffffffffffffffffffffffff19166020820180517bffffffffffffffffffffffffffffffffffffffffffffffffffffffff8381831617835250505050611df1565b505050565b6001816000016000828254019250508190555050565b611ce2848484611588565b611cee84848484611e7a565b611d2d576040517f08c379a0000000000000000000000000000000000000000000000000000000008152600401611d24906131aa565b60405180910390fd5b50505050565b606060405180602001604052806000815250905090565b6060611d558261137d565b611d94576040517f08c379a0000000000000000000000000000000000000000000000000000000008152600401611d8b9061334a565b60405180910390fd5b6000611d9e611d33565b90506000815111611dbe5760405180602001604052806000815250611de9565b80611dc8846117e4565b604051602001611dd9929190612f4e565b6040516020818303038152906040525b915050919050565b60008151905060006a636f6e736f6c652e6c6f679050602083016000808483855afa5050505050565b505050565b611e298383612011565b611e366000848484611e7a565b611e75576040517f08c379a0000000000000000000000000000000000000000000000000000000008152600401611e6c906131aa565b60405180910390fd5b505050565b6000611e9b8473ffffffffffffffffffffffffffffffffffffffff166121df565b15612004578373ffffffffffffffffffffffffffffffffffffffff1663150b7a02611ec46113e9565b8786866040518563ffffffff1660e01b8152600401611ee694939291906130ba565b602060405180830381600087803b158015611f0057600080fd5b505af1925050508015611f3157506040513d601f19601f82011682018060405250810190611f2e9190612536565b60015b611fb4573d8060008114611f61576040519150601f19603f3d011682016040523d82523d6000602084013e611f66565b606091505b50600081511415611fac576040517f08c379a0000000000000000000000000000000000000000000000000000000008152600401611fa3906131aa565b60405180910390fd5b805181602001fd5b63150b7a0260e01b7bffffffffffffffffffffffffffffffffffffffffffffffffffffffff1916817bffffffffffffffffffffffffffffffffffffffffffffffffffffffff191614915050612009565b600190505b949350505050565b600073ffffffffffffffffffffffffffffffffffffffff168273ffffffffffffffffffffffffffffffffffffffff161415612081576040517f08c379a0000000000000000000000000000000000000000000000000000000008152600401612078906132ca565b60405180910390fd5b61208a8161137d565b156120ca576040517f08c379a00000000000000000000000000000000000000000000000000000000081526004016120c1906131ca565b60405180910390fd5b6120d660008383611e1a565b6001600360008473ffffffffffffffffffffffffffffffffffffffff1673ffffffffffffffffffffffffffffffffffffffff1681526020019081526020016000206000828254612126919061347e565b92505081905550816002600083815260200190815260200160002060006101000a81548173ffffffffffffffffffffffffffffffffffffffff021916908373ffffffffffffffffffffffffffffffffffffffff160217905550808273ffffffffffffffffffffffffffffffffffffffff16600073ffffffffffffffffffffffffffffffffffffffff167fddf252ad1be2c89b69c2b068fc378daa952ba7f163c4a11628f55a4df523b3ef60405160405180910390a45050565b600080823b905060008111915050919050565b8280546121fe90613649565b90600052602060002090601f0160209004810192826122205760008555612267565b82601f1061223957805160ff1916838001178555612267565b82800160010185558215612267579182015b8281111561226657825182559160200191906001019061224b565b5b5090506122749190612278565b5090565b5b80821115612291576000816000905550600101612279565b5090565b60006122a86122a3846133f6565b6133c5565b9050828152602081018484840111156122c057600080fd5b6122cb848285613607565b509392505050565b6000813590506122e2816137c2565b92915050565b6000813590506122f7816137d9565b92915050565b60008135905061230c816137f0565b92915050565b600081519050612321816137f0565b92915050565b600082601f83011261233857600080fd5b8135612348848260208601612295565b91505092915050565b60008135905061236081613807565b92915050565b60006020828403121561237857600080fd5b6000612386848285016122d3565b91505092915050565b600080604083850312156123a257600080fd5b60006123b0858286016122d3565b92505060206123c1858286016122d3565b9150509250929050565b6000806000606084860312156123e057600080fd5b60006123ee868287016122d3565b93505060206123ff868287016122d3565b925050604061241086828701612351565b9150509250925092565b6000806000806080858703121561243057600080fd5b600061243e878288016122d3565b945050602061244f878288016122d3565b935050604061246087828801612351565b925050606085013567ffffffffffffffff81111561247d57600080fd5b61248987828801612327565b91505092959194509250565b600080604083850312156124a857600080fd5b60006124b6858286016122d3565b92505060206124c7858286016122e8565b9150509250929050565b600080604083850312156124e457600080fd5b60006124f2858286016122d3565b925050602061250385828601612351565b9150509250929050565b60006020828403121561251f57600080fd5b600061252d848285016122fd565b91505092915050565b60006020828403121561254857600080fd5b600061255684828501612312565b91505092915050565b60006020828403121561257157600080fd5b600061257f84828501612351565b91505092915050565b61259181613593565b82525050565b6125a0816135a5565b82525050565b60006125b18261343b565b6125bb8185613451565b93506125cb818560208601613616565b6125d4816137b1565b840191505092915050565b60006125ea82613446565b6125f48185613462565b9350612604818560208601613616565b61260d816137b1565b840191505092915050565b600061262382613446565b61262d8185613473565b935061263d818560208601613616565b80840191505092915050565b6000815461265681613649565b6126608186613473565b9450600182166000811461267b576001811461268c576126bf565b60ff198316865281860193506126bf565b61269585613426565b60005b838110156126b757815481890152600182019150602081019050612698565b838801955050505b50505092915050565b60006126d5603283613462565b91507f4552433732313a207472616e7366657220746f206e6f6e20455243373231526560008301527f63656976657220696d706c656d656e74657200000000000000000000000000006020830152604082019050919050565b600061273b601c83613462565b91507f4552433732313a20746f6b656e20616c7265616479206d696e746564000000006000830152602082019050919050565b600061277b600a83613473565b91507f54484952445f574f5244000000000000000000000000000000000000000000006000830152600a82019050919050565b60006127bb602483613462565b91507f4552433732313a207472616e7366657220746f20746865207a65726f2061646460008301527f72657373000000000000000000000000000000000000000000000000000000006020830152604082019050919050565b6000612821601983613462565b91507f4552433732313a20617070726f766520746f2063616c6c6572000000000000006000830152602082019050919050565b6000612861606383613473565b91507f222c20226465736372697074696f6e223a20224120686967686c79206163636c60008301527f61696d656420636f6c6c656374696f6e206f6620737175617265732e222c202260208301527f696d616765223a2022646174613a696d6167652f7376672b786d6c3b6261736560408301527f36342c00000000000000000000000000000000000000000000000000000000006060830152606382019050919050565b6000612913600b83613473565b91507f5345434f4e445f574f52440000000000000000000000000000000000000000006000830152600b82019050919050565b6000612953602c83613462565b91507f4552433732313a206f70657261746f7220717565727920666f72206e6f6e657860008301527f697374656e7420746f6b656e00000000000000000000000000000000000000006020830152604082019050919050565b60006129b9600d83613473565b91507f3c2f746578743e3c2f7376673e000000000000000000000000000000000000006000830152600d82019050919050565b60006129f9603883613462565b91507f4552433732313a20617070726f76652063616c6c6572206973206e6f74206f7760008301527f6e6572206e6f7220617070726f76656420666f7220616c6c00000000000000006020830152604082019050919050565b6000612a5f602a83613462565b91507f4552433732313a2062616c616e636520717565727920666f7220746865207a6560008301527f726f2061646472657373000000000000000000000000000000000000000000006020830152604082019050919050565b6000612ac5602983613462565b91507f4552433732313a206f776e657220717565727920666f72206e6f6e657869737460008301527f656e7420746f6b656e00000000000000000000000000000000000000000000006020830152604082019050919050565b6000612b2b602e83613462565b91507f45524337323155524953746f726167653a2055524920736574206f66206e6f6e60008301527f6578697374656e7420746f6b656e0000000000000000000000000000000000006020830152604082019050919050565b6000612b91600283613473565b91507f227d0000000000000000000000000000000000000000000000000000000000006000830152600282019050919050565b6000612bd1602083613462565b91507f4552433732313a206d696e7420746f20746865207a65726f20616464726573736000830152602082019050919050565b6000612c11603183613462565b91507f45524337323155524953746f726167653a2055524920717565727920666f722060008301527f6e6f6e6578697374656e7420746f6b656e0000000000000000000000000000006020830152604082019050919050565b6000612c77602c83613462565b91507f4552433732313a20617070726f76656420717565727920666f72206e6f6e657860008301527f697374656e7420746f6b656e00000000000000000000000000000000000000006020830152604082019050919050565b6000612cdd602983613462565b91507f4552433732313a207472616e73666572206f6620746f6b656e2074686174206960008301527f73206e6f74206f776e00000000000000000000000000000000000000000000006020830152604082019050919050565b6000612d43602f83613462565b91507f4552433732314d657461646174613a2055524920717565727920666f72206e6f60008301527f6e6578697374656e7420746f6b656e00000000000000000000000000000000006020830152604082019050919050565b6000612da9600a83613473565b91507f7b226e616d65223a2022000000000000000000000000000000000000000000006000830152600a82019050919050565b6000612de9602183613462565b91507f4552433732313a20617070726f76616c20746f2063757272656e74206f776e6560008301527f72000000000000000000000000000000000000000000000000000000000000006020830152604082019050919050565b6000612e4f600a83613473565b91507f46495253545f574f5244000000000000000000000000000000000000000000006000830152600a82019050919050565b6000612e8f601d83613473565b91507f646174613a6170706c69636174696f6e2f6a736f6e3b6261736536342c0000006000830152601d82019050919050565b6000612ecf603183613462565b91507f4552433732313a207472616e736665722063616c6c6572206973206e6f74206f60008301527f776e6572206e6f7220617070726f7665640000000000000000000000000000006020830152604082019050919050565b612f31816135fd565b82525050565b6000612f438284612618565b915081905092915050565b6000612f5a8285612618565b9150612f668284612618565b91508190509392505050565b6000612f7e8286612618565b9150612f8a8285612618565b9150612f968284612618565b9150819050949350505050565b6000612faf8285612649565b9150612fbb8284612618565b9150612fc6826129ac565b91508190509392505050565b6000612fdd8261276e565b9150612fe98284612618565b915081905092915050565b6000612fff82612906565b915061300b8284612618565b915081905092915050565b600061302182612d9c565b915061302d8285612618565b915061303882612854565b91506130448284612618565b915061304f82612b84565b91508190509392505050565b600061306682612e42565b91506130728284612618565b915081905092915050565b600061308882612e82565b91506130948284612618565b915081905092915050565b60006020820190506130b46000830184612588565b92915050565b60006080820190506130cf6000830187612588565b6130dc6020830186612588565b6130e96040830185612f28565b81810360608301526130fb81846125a6565b905095945050505050565b600060408201905061311b6000830185612588565b6131286020830184612f28565b9392505050565b60006020820190506131446000830184612597565b92915050565b6000602082019050818103600083015261316481846125df565b905092915050565b6000606082019050818103600083015261318681866125df565b90506131956020830185612f28565b6131a26040830184612588565b949350505050565b600060208201905081810360008301526131c3816126c8565b9050919050565b600060208201905081810360008301526131e38161272e565b9050919050565b60006020820190508181036000830152613203816127ae565b9050919050565b6000602082019050818103600083015261322381612814565b9050919050565b6000602082019050818103600083015261324381612946565b9050919050565b60006020820190508181036000830152613263816129ec565b9050919050565b6000602082019050818103600083015261328381612a52565b9050919050565b600060208201905081810360008301526132a381612ab8565b9050919050565b600060208201905081810360008301526132c381612b1e565b9050919050565b600060208201905081810360008301526132e381612bc4565b9050919050565b6000602082019050818103600083015261330381612c04565b9050919050565b6000602082019050818103600083015261332381612c6a565b9050919050565b6000602082019050818103600083015261334381612cd0565b9050919050565b6000602082019050818103600083015261336381612d36565b9050919050565b6000602082019050818103600083015261338381612ddc565b9050919050565b600060208201905081810360008301526133a381612ec2565b9050919050565b60006020820190506133bf6000830184612f28565b92915050565b6000604051905081810181811067ffffffffffffffff821117156133ec576133eb613782565b5b8060405250919050565b600067ffffffffffffffff82111561341157613410613782565b5b601f19601f8301169050602081019050919050565b60008190508160005260206000209050919050565b600081519050919050565b600081519050919050565b600082825260208201905092915050565b600082825260208201905092915050565b600081905092915050565b6000613489826135fd565b9150613494836135fd565b9250827fffffffffffffffffffffffffffffffffffffffffffffffffffffffffffffffff038211156134c9576134c86136f5565b5b828201905092915050565b60006134df826135fd565b91506134ea836135fd565b9250826134fa576134f9613724565b5b828204905092915050565b6000613510826135fd565b915061351b836135fd565b9250817fffffffffffffffffffffffffffffffffffffffffffffffffffffffffffffffff0483118215151615613554576135536136f5565b5b828202905092915050565b600061356a826135fd565b9150613575836135fd565b925082821015613588576135876136f5565b5b828203905092915050565b600061359e826135dd565b9050919050565b60008115159050919050565b60007fffffffff0000000000000000000000000000000000000000000000000000000082169050919050565b600073ffffffffffffffffffffffffffffffffffffffff82169050919050565b6000819050919050565b82818337600083830152505050565b60005b83811015613634578082015181840152602081019050613619565b83811115613643576000848401525b50505050565b6000600282049050600182168061366157607f821691505b6020821081141561367557613674613753565b5b50919050565b6000613686826135fd565b91507fffffffffffffffffffffffffffffffffffffffffffffffffffffffffffffffff8214156136b9576136b86136f5565b5b600182019050919050565b60006136cf826135fd565b91506136da836135fd565b9250826136ea576136e9613724565b5b828206905092915050565b7f4e487b7100000000000000000000000000000000000000000000000000000000600052601160045260246000fd5b7f4e487b7100000000000000000000000000000000000000000000000000000000600052601260045260246000fd5b7f4e487b7100000000000000000000000000000000000000000000000000000000600052602260045260246000fd5b7f4e487b7100000000000000000000000000000000000000000000000000000000600052604160045260246000fd5b6000601f19601f8301169050919050565b6137cb81613593565b81146137d657600080fd5b50565b6137e2816135a5565b81146137ed57600080fd5b50565b6137f9816135b1565b811461380457600080fd5b50565b613810816135fd565b811461381b57600080fd5b5056fe416e204e465420772f20494420257320686173206265656e206d696e74656420746f2025734142434445464748494a4b4c4d4e4f505152535455565758595a6162636465666768696a6b6c6d6e6f707172737475767778797a303132333435363738392b2fa2646970667358221220f8780a3923420bcf4c088ed95bb82a1c9301a86ed94894b3826b3435d30539b964736f6c634300080000333c73766720786d6c6e733d27687474703a2f2f7777772e77332e6f72672f323030302f73766727207072657365727665417370656374526174696f3d27784d696e594d696e206d656574272076696577426f783d273020302033353020333530273e3c7374796c653e2e62617365207b2066696c6c3a2077686974653b20666f6e742d66616d696c793a2073657269663b20666f6e742d73697a653a20323470783b207d3c2f7374796c653e3c726563742077696474683d273130302527206865696768743d2731303025272066696c6c3d27626c61636b27202f3e3c7465787420783d273530252720793d273530252720636c6173733d27626173652720646f6d696e616e742d626173656c696e653d276d6964646c652720746578742d616e63686f723d276d6964646c65273e",
  "linkReferences": {},
  "deployedLinkReferences": {}
}